:020000040800F2
:10000000C0050020250500082D0500082F05000863
:100010003105000833050008350500080000000020
:1000200000000000000000000000000009020008BD
:100030003905000800000000AD0200080D030008AB
:100040003F0500083F0500083F0500083F05000880
:100050003F0500083F050008B90B0008E50B000844
:100060003F0500083F0500083F0500083F05000860
:100070003F0500083F0500083F0500083F05000850
:100080003F0500083F0500083F0500083F05000840
:100090003F0500083F0500083F0500083F05000830
:1000A0003F0500083F0500083F0500083F05000820
:1000B0003F0500083F0500083F0500083F05000810
:1000C0003F0500083F0500083F0500083F05000800
:1000D0003F0500083F0500083F0500083F050008F0
:1000E0003F0500083F0500083F0500083F050008E0
:1000F0003F0500083F0500083F0500083F050008D0
:100100003F0500083F0500083F0500083F050008BF
:100110003F0500083F0500083F0500083F050008AF
:100120003F0500083F0500083F0500083F0500089F
:100130003F0500083F0500083F0500083F0500088F
:100140003F0500083F0500083F0500083F0500087F
:100150003F0500083F0500083F0500083F0500086F
:100160003F0500083F0500083F0500083F0500085F
:100170003F0500083F0500083F0500083F0500084F
:100180003F0500083F050008DFF814D003F086F9AA
:100190000021024803F00CFFFEE70000B84F000802
:1001A000C005002080F309887047684680F30988FD
:1001B00004480078C00714BF0220032080F314888D
:1001C00070470000804F0008DFF818C0EFF3058388
:1001D0001B0618BF6047EFF31483DB0708BF6047B7
:1001E00000DF704711410008DFF818C0EFF3058306
:1001F0001B0618BF6047EFF31483DB0708BF604797
:1002000000DF704791430008EFF30980816911F81E
:10021000021C002933D190E80F1010B5E047BDE86B
:100220001040EFF3098C8CE807001D4B93E80600A3
:10023000914208BF704781B11EF0100F06BF2CED30
:10024000108A0120002081F820002CE9F00FC1F86D
:1002500024C00CB404F06AFB0CBC1A60D2F824C0B1
:10026000BCE8F00F92F8200000281ABFBCEC108AFE
:100270006FF0120E6FF0020E8CF30988704710B504
:10028000084A1268914209D8074C54F8214090E876
:100290000F10A047EFF3098C8CE80F0010BD000091
:1002A000D8000020C0340008C034000810B504F0A5
:1002B00015FABDE81040174B93E80600914208BFBD
:1002C0007047EFF3098C1EF0100F06BF2CED108A5B
:1002D0000120002081F820002CE9F00FC1F824C093
:1002E0000CB404F023FB0CBC1A60D2F824C0BCE8A8
:1002F000F00F92F8200000281ABFBCEC108A6FF0B3
:10030000120E6FF0020E8CF30988704710B504F0DE
:10031000D3FBCEE7D80000200CB500200190009060
:100320007548006840F480307349086000BF724827
:10033000006800F4003000900198401C0190009883
:1003400018B90198B0F5A06FF1D16B48006810F4AE
:10035000003F02D00120009001E0002000900098B2
:10036000012845D164484030006840F0805062491F
:10037000403108606148006840F480405F4908608F
:100380005D48083000685C4908310860084600682C
:1003900040F4004008600846006840F4A05008603F
:1003A0005748091F0860081F006840F08070091F47
:1003B000086000BF5048006810F0007FFAD040F29B
:1003C0000560504908604C480830006820F0030080
:1003D0004949083108600846006840F0020008609A
:1003E00000BF45480830006800F00C000828F8D12C
:1003F0000CBD10B54448006840F4700042490860E4
:100400003D48006840F001003B49086000203A493F
:1004100008310860384800683C490840364908609F
:100420003B48091D0860081F006820F48020091F50
:100430000860002030490C310860FFF76DFF4FF075
:10044000006031498039086010BD70B5002000227D
:10045000022300240221284D08352D6805F00C00E8
:1004600020B1042806D0082834D107E0294D2A4EAF
:10047000356033E0294D284E35602FE01E4D2D1D8F
:100480002D68C5F380541C4D2D1D2D6805F03F01CE
:1004900054B1224DB5FBF1F5174E361D3668C6F343
:1004A000881605FB06F209E01A4DB5FBF1F5124E70
:1004B000361D3668C6F3881605FB06F20E4D2D1D57
:1004C0002D68C5F301456D1C6B00B2FBF3F5124EB0
:1004D000356003E00F4D104E356000BF00BF064D84
:1004E00008352D68C5F303150D4E705D0A4D2D6856
:1004F000C540094E356070BD0038024000700040B4
:1005000008544007003C024088ED00E0FFFFF6FE83
:10051000103000240024F4000000002000127A00B3
:10052000040000200648804706480047FEE7FEE733
:10053000FEE7FEE7FEE7FEE7FEE7FEE7FEE7FEE793
:10054000F30300088901000800BFFEE700BFFEE7D3
:1005500010B500F006FD00F099FF01F0FFFB00214F
:10056000FC4803F0A1FDFC4908600021FB4803F0B2
:100570009BFDFB4908604FF0FF3003F00DFD0020AC
:1005800010BD2DED0A8BCEB000F01EFF01F0DFFB99
:1005900036A800F0CBFE1EA800F0C8FE06A800F0AA
:1005A000C5FE8720EF49087003A801F051F9012228
:1005B000F521ED4801F0DCF9AAE04FF0FF31EB48FE
:1005C000006803F065FD8DE8070003A801F040F91D
:1005D00003A800F03BFBDDED030AF8EEE00AB0EE05
:1005E000600A36A800F0BAFEDDED040AF8EEE00A73
:1005F000B0EE600A1EA800F0B1FEDDED050AF8EECF
:10060000E00AB0EE600A06A800F0A8FE9DED340AEC
:1006100020EE000ADDED1C0A9DED1C1A00EE810A99
:1006200010EE101A084602F07FFD41EC100BB0EE00
:1006300040CAF0EE60CA02F059FFB0EE40AAF0EEF8
:1006400060AA9DED4C0A10EE101A084602F06CFDEF
:1006500041EC100BB0EE40BAF0EE60BA53EC1A2B3E
:1006600051EC1B0B02F0C1FC41EC100BB0EE409AB8
:10067000F0EE609A51EC190B02F07EFD08EE100AC4
:10068000B0EE480A00F070FBB94880ED000A9DED1D
:100690004C0A20EE000ADDED1C0A9DED1C1A00EE4E
:1006A000810A10EE101A084602F03EFD41EC100BD4
:1006B000B0EE40CAF0EE60CA02F018FFB0EE40AAF9
:1006C000F0EE60AA9DED340A10EE101A084602F012
:1006D0002BFD41EC100BB0EE40BAF0EE60BA53ECDB
:1006E0001A2B51EC1B0B02F080FC41EC100BB0EE0E
:1006F000409AF0EE609A51EC190B02F03DFD08EEC5
:10070000100AB0EE480A00F02FFB9A4880ED000A6C
:1007100053E72DED048B82B00CE297480078002857
:1007200048D19448006802F0FFFC41EC100BB0EE99
:10073000408AF0EE608A8E48006802F0F5FC41ECD9
:10074000100BB0EE409AF0EE609A8DED008B53ECFA
:10075000192B8AA000F02FFC854890ED000ABCEE12
:10076000C00A10EE100A7F494870824890ED000AD6
:10077000BCEEC00A10EE100A887000233B228549A7
:10078000794801F016F903233F227649764801F0B3
:1007900010F9002335227F49734801F00AF904E07B
:1007A0000122F521704801F0E3F86F480078012834
:1007B000F6D1BCE1704800780128FAD1764800688B
:1007C000002870D075A000F0F6FB00207549086085
:1007D00029E00020744908601CE07249096801EBB7
:1007E000C101724A1144704A126802EB4202881831
:1007F00001F0A0FB6B49096801EB41016C4A02EB77
:100800008101694A126841F8220067480068401C6B
:1008100065490860644800680328DEDB61480068B9
:10082000401C604908605F4800680528D1DB002053
:100830004C494870887000233B2256494A4801F0D1
:10084000B8F803233F224749474801F0B2F8002394
:1008500035225049444801F0ACF804E00122F5216A
:10086000414801F085F8404800780128F6D14D490B
:100870000860C6E04B480068401E00EB40004C4951
:1008800011F820003749487046480068401E00EBC8
:100890004000474901EB8000007932498870002010
:1008A0004149086096E0F1E03E48006800EB4000F6
:1008B0003F4951F820103B480068401E00EB4000C3
:1008C0003B4A52F82000091A3648006800EB400005
:1008D00002EB800080686422504391FBF0F02149D4
:1008E000497808441F4948702E48006800EB4000D2
:1008F0002F4901EB800041682A480068401E00EB48
:1009000040002B4A02EB80004068091A2548006825
:1009100000EB400002EB800080686422504391FBB2
:10092000F0F01049897808440E49887000233B2272
:1009300018490D4801F03DF803233F2209490A48B0
:1009400001F037F8002335221249074801F031F849
:1009500035E00000C84F00084C000020D84F0008C8
:1009600050000020490000204800002038000020EE
:1009700040000020440000202400002070697463BF
:1009800068203D20256620726F6C6C203D20256616
:100990000000000025000020340000207265616422
:1009A00079000000280000202C000020F400002026
:1009B000240100200122F521924800F0D9FF91483E
:1009C00000780128F6D103F0E7FA8F480068401C50
:1009D0008D4908608D48006800EB40008C4901EBB0
:1009E0008000806800EBC00101EB001086490968B7
:1009F000B1EB800FFFF658AF84480068401C834974
:100A00000860824800680528FFF634AF002081495D
:100A100008607E4908602DE000207B49086020E0E6
:100A200000207D49086013E000217848006800EB51
:100A3000C0007A4A1044744A126802EB4202104421
:100A4000754A1268815474480068401C72490860F5
:100A5000714800680328E7DB6B480068401C6A495E
:100A60000860694800680328DADB68480068401CB1
:100A700066490860654800680528CDDB00206349A9
:100A80000860614908606449086050E001F0D4F9E9
:100A90000446BCB1232C15D02A2C13D05B48006827
:100AA00000EBC0005D4908445749096801EB41016A
:100AB000084459490968445457480068401C56493D
:100AC00008601FE054B1232C08D14F480068401C37
:100AD0004D49086000205049086013E094B12A2C69
:100AE00010D14A480068401C484908600020464927
:100AF00008604949086045480068052802DB012074
:100B0000444908604148006800EBC000434D284458
:100B1000831D3E48006800EBC0002844C21C3B48CF
:100B2000006800EBC00041193DA000F044FA0A2023
:100B300003F032FAF1E52DED048B82B03BE03E4844
:100B40000078E0B93D48006802F0EEFA41EC100B85
:100B5000B0EE408AF0EE608A3948006802F0E4FAAC
:100B600041EC100BB0EE409AF0EE609A8DED008BE8
:100B700053EC192BAFF2FC1000F01DFA18E02E48D0
:100B80000078012814D12148006800EBC000234CF4
:100B90002044831D1D48006800EBC0002044C21C97
:100BA0001A48006800EBC00001191DA000F003FA0C
:100BB000142003F0F1F9C2E710B5012001F0B0FAFA
:100BC00078B1012001F0BDFA1B480078401C1A4999
:100BD0000870087800EBD0714910A0EB4101164A6B
:100BE000117010BD10B5022001F09AFA40B1022038
:100BF00001F0A7FA134801681348006803F02EFAC1
:100C000010BD0000480000202C000020280000201B
:100C1000240100203400002030000020F4000020D7
:100C200070203D2025732072203D202573207420E4
:100C30003D20257300000000240000204400002017
:100C400040000020380000204C00002070B52DED41
:100C5000088B84B006460020019002900390002487
:100C60006FE000256AE056F8250002F02DFA41EC0D
:100C7000100BB0EE40BAF0EE60BA05EB4500394912
:100C800001EBC00000EBC40090ED001BB0EE410A88
:100C9000F0EE610A53EC102B51EC1B0B02F033F910
:100CA00041EC100BB0EE409AF0EE609A01A951F8B9
:100CB000240002F009FA41EC100BB0EE40AAF0EE6D
:100CC00060AA53EC192B51EC1A0B02F075F841ECA9
:100CD000100BB0EE408AF0EE608A51EC180B02F077
:100CE00004FA01A941F82400022D26D151F824006C
:100CF00002F0EAF941EC100BB0EE409AF0EE609A87
:100D00001848483000EBC40090ED001BB0EE410ADB
:100D1000F0EE610A53EC102B51EC190B02F04CF879
:100D200041EC100BB0EE408AF0EE608A51EC180BEB
:100D300002F0DBF901A941F824006D1C032D92DBC0
:100D4000641C032C8DDB002005E001A951F8201064
:100D500046F82010401C0328F7DB04B0BDEC088BDC
:100D600070BD000058000020F0EE400AF5EEC00A09
:100D7000F1EE10FA3AD29FED3A1A20EEC10A9FED39
:100D8000381AB4EEC10AF1EE10FA20DD9FED351AE3
:100D9000B4EEC10AF1EE10FA03DD9FED311AB0EEA8
:100DA000410ABCEEC01A11EE101A88B242F210715C
:100DB00091FBF0F188B22C4901EB800191ED001A12
:100DC000DFED2A1A31EE611AB0EE410A46E0BCEEC0
:100DD000C01A11EE101A88B2234901EB800191ED7F
:100DE000001AB1EE411AB0EE410A37E09FED1C1A2D
:100DF00020EE810A9FED1A1AB4EEC10AF1EE10FA44
:100E000020DD9FED181AB4EEC10AF1EE10FA03DDF1
:100E10009FED131AB0EE410ABCEEC01A11EE101A83
:100E200088B242F2107191FBF0F188B20E4901EBE9
:100E3000800191ED001ADFED0D1A31EEC11AB0EE0E
:100E4000410A0BE0BCEEC01A11EE101A88B2064936
:100E500001EB800191ED001AB0EE410A70470000ED
:100E60000000C84200401C46F84F00080000B44291
:100E700000BF0100A0F10100FBD1704770B508244C
:100E8000002508E02146F74801F04EFA4FF6FF70C2
:100E900000EA44046D1C0D2DF4DB70BD2DE9F0411A
:100EA0008AB007464FF0000820256E4600241DE05A
:100EB000022C03D14FF6FF7000EA45050120A04047
:100EC000384208D02946E74801F02EFA3460361D32
:100ED00008F1010803E02946E24801F027FA092C4D
:100EE00003D04FF6FF7000EA4505641C0A2CDFDBD7
:100EF0008021DC4801F018FA40F20E60FFF7B8FFDD
:100F00008021D84801F012FA042F04D14FF6E8509E
:100F1000FFF7AEFF03E040F20E60FFF7A9FF2025C8
:100F2000002402E0361FA8F10108B8F1000FF9DC37
:100F3000002411E0022C03D14FF6FF7000EA4505B2
:100F40003068A04203D12946C64801F0EFF94FF6B8
:100F5000FF7000EA4505641C0A2CEBDB0AB0BDE813
:100F6000F0811CB50121102001F0A8FB4FF6F870AC
:100F7000009001208DF8040003208DF8050000206A
:100F80008DF8060002208DF807006946B54801F08B
:100F90004FF9FFF773FF0420FFF780FF0820FFF7EA
:100FA0007DFF1820FFF77AFF3020FFF777FFE02062
:100FB000FFF774FF1CBD0FB42DE9F0472DED028B38
:100FC0008EB0FFF75BFF0420FFF768FF0820FFF7F4
:100FD00065FF19A80D9003AC6D46002768E01898CE
:100FE000007825285CD11898401C18901898007833
:100FF000642837D0662802D073284FD133E00D988B
:10100000C01D20F007000D90B0EC021BB0EE410AAD
:10101000F0EE610A0D9051EC100B02F0ADF8824633
:1010200002F082F841EC100BB0EE408AF0EE608ADC
:1010300053EC182B8CA1684602F044FA04E028789F
:101040002070641C761C6D1C28780028F7D180461F
:1010500002E06D1E08F10108B045FADB1898401C4B
:1010600018901CE01BE00D9804C880A10D90684604
:1010700002F028FA04E028782070641C761C6D1CAD
:1010800028780028F7D1804602E06D1E08F101089B
:10109000B045FADB1898401C189000E000BF00BF74
:1010A000189800782070641C7F1C1898401C1890B9
:1010B00018980078002892D12070814602E0641EC2
:1010C00009F10109B8194845F9DC002723E1102F7F
:1010D0000AD14FF0000A04E05020FFF7DFFE0AF1CA
:1010E000010ABAF1180FF7DB2078662873D031DCDB
:1010F000362856D018DC31283FD00CDC2D286BD098
:1011000004DC202869D02C2868D1F8E02E2870D083
:101110003028F9D12DE0322833D0332835D0342887
:1011200037D03528F0D138E061284AD009DCA0F169
:101130003700072852D2DFE800F0383C40D6EAEA10
:10114000DA00622842D0632849D064284CD0652850
:10115000DAD14FE067381428ECD2DFE800F0555AB6
:101160005F64696E73787D898E93989DA2A7ACB1F8
:10117000B6BBC120FFF792FECAE0C520FFF78EFE86
:10118000C6E0C920FFF78AFEC2E0CD20FFF786FE49
:10119000BEE0D120FFF782FEBAE0D520FFF77EFE49
:1011A000B6E0D920FFF77AFEB2E0DD20FFF776FE49
:1011B000AEE0E120FFF772FEAAE0E520FFF76EFE49
:1011C000A6E040F28510FFF769FEA1E040F2891029
:1011D000FFF764FE9CE012E095E080E097E040F2CB
:1011E0008D10FFF75BFE93E040F29110FFF756FE83
:1011F0008EE080E040F29510FFF750FE88E040F26C
:101200009910FFF74BFE83E040F29D10FFF746FE7A
:101210007EE040F2A110FFF741FE79E040F2A51018
:10122000FFF73CFE74E040F2A910FFF737FE6FE0D5
:1012300040F2AD10FFF732FE6AE040F2B110FFF766
:101240002DFE65E040F2B510FFF728FE60E040F2A9
:10125000B910FFF723FE5BE040F2BD10FFF71EFE62
:1012600056E00000001002402566000025730000D3
:1012700040F2C110FFF712FE4AE040F2C510FFF73E
:101280000DFE45E040F2C910FFF708FE40E040F2D5
:10129000CD10FFF703FE3BE040F2D110FFF7FEFD5B
:1012A00036E040F2D510FFF7F9FD31E040F2D910F9
:1012B000FFF7F4FD2CE040F2DD10FFF7EFFD27E033
:1012C00040F2E110FFF7EAFD22E040F2E510FFF7FF
:1012D000E5FD1DE040F2E910FFF7E0FD18E0812098
:1012E000FFF7DCFD14E0E920FFF7D8FD10E0F52062
:1012F000FFF7D4FD0CE0B920FFF7D0FD08E0B120E6
:10130000FFF7CCFD04E0B520FFF7C8FD00E000BF0B
:1013100000BF7F1C641C207800287FF4D8AE0EB07C
:10132000BDEC028BBDE8F0075DF814FB0021C16540
:1013300001609FED240A80ED150A9FED220A80EDE1
:10134000160A00BF07E09FED1F0A021D02EB810293
:1013500082ED000A491C1429F5DB7047011D026863
:1013600001EB820181ED000A0168491C01600168FE
:10137000142901D10121C1651422016891FBF2F306
:1013800002FB13110160C16DD9B1DFED0E0AC0ED92
:10139000150A00210BE0D0ED150A021D02EB8102B7
:1013A00092ED001A70EE810AC0ED150A491C14294D
:1013B000F1DBD0ED150AB3EE041AC0EE811AC0EDD0
:1013C000161A70470000000000B589B040208DF863
:1013D0001C0000208DF81D0007208DF81E00002045
:1013E0008DF81F008DF8200007A800F075F9002087
:1013F0008DF818008DF819008DF81A0006A800F075
:10140000BFF9202005900122222105A800F0B4F8A0
:101410000121102001F052F90121880301F092F915
:101420000220039000208DF8100003208DF8110099
:1014300000208DF8120002208DF8130003A9124835
:1014400000F0F6FE0121042001F07EFC0220019054
:1014500000208DF8080008208DF8090001208DF883
:101460000A0001A800F0F6FD07208DF8000000201A
:101470008DF8010001208DF802008DF80300684608
:1014800000F06DFD09B000BD0010024000B585B050
:101490000121084601F012F90121880301F052F9F7
:1014A0000120039000208DF8100003208DF811001A
:1014B00000208DF8120002208DF8130003A91248B5
:1014C00000F0B6FE0021084601F03EFC012001902C
:1014D00000208DF8080008208DF8090001208DF803
:1014E0000A0001A800F0B6FD06208DF800000020DB
:1014F0008DF801008DF8020001208DF80300684688
:1015000000F02DFD05B000BD00000240704710B591
:1015100004464FF48050EA49086009E0E849086849
:10152000411EE74A116018B9FFF7F0FFC0B210BDC5
:101530000221E44801F0BFFB0028EFD02146E1483A
:1015400001F082FB4FF48050DD49086009E0DC497E
:101550000868411EDA4A116018B9FFF7D7FFC0B218
:10156000E5E70121D74801F0A6FB0028EFD0D548D8
:1015700001F067FBC0B2DAE770B505460E461446C7
:10158000012C01DD46F040060821CF4800F0CEFED8
:101590003046FFF7BCFF05E02878FFF7B8FF601E74
:1015A00084B26D1C012CF7DA0821C74800F0BCFE9C
:1015B00070BD00B587B00121080301F0C3F8012117
:1015C000084601F07BF80121102001F077F8012195
:1015D000102001F073F80121102001F06FF80522AE
:1015E0001146BA4800F0AFFE05220621B74800F0C8
:1015F000AAFE05220721B54800F0A5FE02208DF8BD
:10160000180000208DF81A0002208DF81B008DF8BC
:1016100019002020059005A9AC4800F009FE8020A3
:10162000059005A9A94800F003FE4020059005A9F2
:10163000A64800F0FDFDA34801F07EF90020ADF8BA
:101640000000ADF80400ADF80600ADF808004FF456
:101650000070ADF80A000820ADF80C000020ADF8CD
:101660000E000720ADF810004FF48270ADF80200B4
:101670006946944801F086F90121924801F063FA25
:101680000820059001208DF8180000208DF81A0020
:1016900002208DF8190005A98B4800F0C9FD08212A
:1016A000894800F041FE0120059000208DF81800C7
:1016B0008DF81A0002208DF8190000208DF81B000B
:1016C00005A9814800F0B4FD0220059005A97E48D7
:1016D00000F0AEFD07B000BD38B504460020009014
:1016E000FFF767FF607821780843E17808432179A4
:1016F0000843A17808430090012220216846FFF7A3
:101700003BFF38BD70B506460C461546012D02DD7F
:1017100044F0C00401E044F0800408216A4800F06D
:1017200005FE2046FFF7F3FE06E00020FFF7EFFE80
:101730003070681E85B2761C002DF6DC08216248E8
:1017400000F0F2FD70BD38B5044600200090012283
:1017500021216846FFF7D6FF9DF8000000F0D00079
:101760000090207861780843A17808439DF8001024
:1017700008430090012221216846FFF7FDFE38BD95
:1017800038B5044600200090012238216846FFF752
:10179000B9FF207861780843A178084300900122BE
:1017A00038216846FFF7E8FE38BD38B50446012207
:1017B00020216846FFF7A6FF9DF8000000F0BF005B
:1017C00000909DF8000020430090012220216846EF
:1017D000FFF7D2FE38BD38B5044601222021684605
:1017E000FFF790FF9DF8000000F07F0000909DF84B
:1017F000000020430090012220216846FFF7BCFE34
:1018000038BD38B50446012220216846FFF77AFF2B
:101810009DF8000000F0DF0000909DF800002043DC
:101820000090012220216846FFF7A6FE38BD08B5CA
:10183000012221216846FFF765FF9DF8000040F076
:1018400040000090012221216846FFF795FE08BD67
:101850003EB505460024012220216846FFF752FFCD
:101860000622292101A8FFF74DFF9DF8000010F086
:10187000200002D0202820D10FE000240AE001A996
:1018800011F8140040B200EBC000400028602D1D8C
:10189000601CC4B2032CF2DB10E000240AE001A9B2
:1018A00011F8140040B200EBC000C00028602D1DEC
:1018B000601CC4B2032CF2DB00E000BF00BF3EBDE1
:1018C000B80000200030014000100240000002403B
:1018D00010B54FF48051FE4800F028FD00BF4FF4D2
:1018E0008041FB4800F006FD0128F8D0012010BD22
:1018F00010B54FF48051F64800F016FD012010BDE0
:1019000070B504460D464FF48050F24908600AE075
:10191000F0490868411EEF4A116020B94FF4007188
:10192000ED4800F001FD0221EC4801F0C4F9002867
:10193000EED02946E94801F087F94FF48050E54997
:1019400008600AE0E3490868411EE24A116020B9D4
:101950004FF40071E04800F0E7FC0121DF4801F09E
:10196000AAF90028EED0DD4801F06BF9207070BDB7
:101970002DE9F04106460C461546002744F0800448
:10198000012D01DD44F04004FFF7A2FF214630465F
:10199000FFF7B6FF04E039463046FFF7B1FF761C8B
:1019A0002800A5F101018DB2F5D1FFF7A1FFBDE837
:1019B000F0812DE9F04107460C4615461E46012EE2
:1019C00001DD45F04005FFF783FF29463846FFF764
:1019D00097FF04E021783846FFF792FF641C30003F
:1019E000A6F101018EB2F5D1FFF782FFBDE8F081CB
:1019F00000B587B00121880300F093FE0121022089
:101A000000F05CFE0121084600F058FE05220D2181
:101A1000AF4800F098FC05220E21AD4800F093FC81
:101A200005220F21AA4800F08EFC02208DF8180034
:101A300000208DF81A0002208DF81B008DF8190087
:101A40000003059005A9A24800F0F2FB4FF4804086
:101A5000059005A99E4800F0EBFB4FF4004005906F
:101A600005A99B4800F0E4FB9C4800F065FF0020BE
:101A7000ADF80000ADF80400ADF80600ADF80800C0
:101A80004FF40070ADF80A000820ADF80C000020FB
:101A9000ADF80E000720ADF810004FF48270ADF8DD
:101AA000020069468D4800F06DFF01218B4801F06E
:101AB0004AF801208DF8180000208DF81A00022045
:101AC0008DF819004FF49050059005A9804800F05A
:101AD000AFFB05A9804800F0ABFB4FF480517C4878
:101AE00000F022FC07B000BD0EB5002000900123DD
:101AF0003022694602A8FFF75CFF0C200190012309
:101B00000B2201A902A8FFF754FF00200190012336
:101B10000C2201A902A8FFF74CFF5D2001900123D0
:101B20000D2201A902A8FFF744FF93200190012391
:101B30000E2201A902A8FFF73CFFB120019001236A
:101B40000F2201A902A8FFF734FF0E200190012304
:101B5000102201A902A8FFF72CFF3B2001900123CE
:101B6000112201A902A8FFF724FF7320019001238D
:101B7000122201A902A8FFF71CFFC2200190012335
:101B8000132201A902A8FFF714FFF82001900123F6
:101B9000142201A902A8FFF70CFF002001900123E5
:101BA0000A2201A902A8FFF704FF002001900123E7
:101BB000152201A902A8FFF7FCFEB620019001231F
:101BC000212201A902A8FFF7F4FE102001900123B1
:101BD000222201A902A8FFF7ECFE002001900123B8
:101BE000172201A902A8FFF7E4FE182001900123A3
:101BF000182201A902A8FFF7DCFE1D200190012395
:101C0000192201A902A8FFF7D4FE1C20019001238C
:101C10001A2201A902A8FFF7CCFEC72001900123D8
:101C20001B2201A902A8FFF7C4FE40200190012356
:101C30001C2201A902A8FFF7BCFEB02001900123DD
:101C40001D2201A902A8FFF7B4FEEA20019001239A
:101C5000232201A902A8FFF7ACFE0A20019001236C
:101C6000242201A902A8FFF7A4FE0020019001236D
:101C7000252201A902A8FFF79CFE1920019001234B
:101C8000262201A902A8FFF794FE59200190012302
:101C9000292201A902A8FFF78CFE882001900123C8
:101CA0002C2201A902A8FFF784FE31200190012314
:101CB0002D2201A902A8FFF77CFE0B200190012331
:101CC0002E2201A902A8FFF774FE0020019007E070
:101CD00000040240BC000020000002400038004028
:101CE0000123032201A902A8FFF763FE2920019026
:101CF0000123002201A902A8FFF75BFE0620019044
:101D00000123022201A902A8FFF753FE0920019036
:101D10000123072201A902A8FFF74BFE042001902E
:101D20000123082201A902A8FFF743FE87200190A2
:101D30000123092201A902A8FFF73BFE032001901D
:101D40000123062201A902A8FFF733FE0EBD10B53C
:101D5000FFF74EFEFFF7C8FE10BD00001CB50121C5
:101D6000082000F0ABFC40F2CE30009000208DF84F
:101D700004008DF8060003208DF8050002208DF880
:101D800007006946534800F053FA1CBD10B5022104
:101D9000504800F0AFFA30B14F48007840F0800072
:101DA0004D49087026E004214A4800F0A3FA30B1FA
:101DB0004948007840F04000474908701AE008217F
:101DC000444800F097FA30B14348007840F02000D2
:101DD000414908700EE040213E4800F08BFA30B1D6
:101DE0003D48007840F010003B49087002E00020B8
:101DF000394908703848007810BD10B50446802174
:101E0000344800F077FA10B144F0080412E04FF4BF
:101E10008071304800F06EFA10B144F0040409E01B
:101E20004FF400712B4800F065FA10B144F0020441
:101E300000E00024204610BD10B5FFF7A7FF0446C0
:101E4000FFF7DBFF244908702448007809788842AE
:101E50003DD021480078214908701F480078422869
:101E600025D00EDC222828D006DC12282BD01428FE
:101E700027D0182829D122E024281CD0282824D1B2
:101E800017E082280DD004DC44280ED048281CD14D
:101E900009E0842803D0882817D1312010BD3220D2
:101EA000FCE73320FAE73420F8E73520F6E7362060
:101EB000F4E73720F2E73820F0E73920EEE72A2070
:101EC000ECE73020EAE72320E8E70020E6E70020FF
:101ED000E4E70000000C0240C0000020C100002028
:101EE000F0B503460C46012701250026611E1CE0C3
:101EF0005A5C2D2A07D111B94FF0FF3702E04FF09D
:101F0000FF30F0BD0CE0302A06DB392A04DCA2F1F8
:101F1000300000FB056602E04FF0FF30F1E700BF44
:101F200000BF491E05EB850045000029E0DA07FBEC
:101F300006F0E6E770B504462546002601E0761C6B
:101F40006D1C28780028FAD131462046FFF7C8FFDB
:101F500070BD000033490143334A1160704770B5CA
:101F6000002100230F22C47824B32F4C246804F4EA
:101F7000E064C4F5E064C4F30721C1F10404E3B2F2
:101F80000A4144789C40E1B28478144021430C0714
:101F9000210E264C05786155047804F01F050124B4
:101FA000AC4005786D114FF0E02606EB8505C5F8CD
:101FB000004109E0047804F01F040125A5401C4CF1
:101FC0000678761144F8265070BD1A4A0A4002433A
:101FD000154B1B1F1A60704739B1134A121D126846
:101FE0000243114B1B1D1A6006E00F4A121D1268B6
:101FF00082430D4B1B1D1A607047042808D14FF017
:10200000E021096941F004014FF0E022116107E08D
:102010004FF0E021096921F004014FF0E022116145
:10202000704700000000FA050CED00E000E400E05D
:1020300080E100E080FFFF1F002044490860091D87
:102040000860091D0860091D086041483F491431B6
:102050000860704700213D498279002A3AD00A463B
:10206000126803689A430B461A600A1D12680368D7
:102070009A430B1D1A60027911440A6803681A43D7
:102080000A60324A0832126803689A432F4B0833B9
:102090001A601A1D126803689A432C4B0C331A609D
:1020A0004279102A0ED11A1F126803681A43274B6F
:1020B00008331A601A1D126803681A43234B0C3345
:1020C0001A600DE02149427911440A6803681A43F5
:1020D0000A6005E0027911440A6803689A430A60BD
:1020E00070470021016001710C2141710021817153
:1020F00070471649103109680143144A10321160C3
:10210000704701460020114A143212680A4201D079
:10211000012000E0002070470C491431086070472E
:10212000014600200022094B1B6803EA0102074B0D
:1021300014331B680B4202D00AB1012000E00020DA
:10214000704702491431086070470000003C0140AC
:10215000FFFF7F0010B504468C48844208D101215E
:10216000084600F000FB0021012000F0FCFA5EE0D0
:102170008748844208D10121022000F0F4FA0021AE
:10218000022000F0F0FA52E08248844208D1012196
:10219000042000F0E8FA0021042000F0E4FA46E010
:1021A0007D48844208D10121082000F0DCFA00219A
:1021B000082000F0D8FA3AE07848844208D101219A
:1021C000102000F0D0FA0021102000F0CCFA2EE010
:1021D0007348844208D10121202000F0C4FA002174
:1021E000202000F0C0FA22E06E48844208D101218C
:1021F000402000F0B8FA0021402000F0B4FA16E0C8
:102200006948844208D10121802000F0ACFA002105
:10221000802000F0A8FA0AE06448844207D1012136
:10222000801500F0A0FA0021A01500F09CFA10BD66
:10223000F0B50A4600210023002400BF3DE001253F
:1022400005FA01F3156805EA03049C4234D10568D8
:102250004F000326BE40B543056015794E00B540DA
:102260000668354305601579012D02D01579022DD8
:1022700016D185684F000326BE40B5438560557969
:102280004E00B540866835438560456801268E401E
:10229000B5434560456896798E40B6B23543456092
:1022A000C5684F000326BE40B543C560D5794E00D2
:1022B000B540C6683543C560491C1029BFD3F0BD81
:1022C0004FF6FF7101600021017141718171C1718F
:1022D000704708B54FF480320092009A0A4300928A
:1022E000009AC261C161009AC261C2690092C2696A
:1022F000009208BD0246002013690B4201D0012064
:1023000000E0002070470146086980B2704702462D
:10231000002053690B4201D0012000E000207047EB
:102320000146486980B27047018370474183704716
:102330000AB1018300E041837047416170474269FF
:102340004A4042617047F0B5002300244D07ED0E6E
:1023500002FA05F3CE1000F1200555F826504E077D
:10236000F70E0F26BE40B543CF1000F1200646F809
:102370002750CE1000F1200555F8265045EA0304F9
:10238000CE1000F1200545F82640F0BD00000240C7
:102390000004024000080240000C0240001002400D
:1023A0000014024000180240001C024000200240BD
:1023B000FA48006840F00100F84908600020F74939
:1023C00008310860F5480068F5490840F34908609D
:1023D000F448091D0860081F006820F48020091FC8
:1023E00008600020ED490C31086070470021EB4A7D
:1023F000921C117011460870704710B501460022FA
:10240000002300204A11012A02D1E44C236808E08D
:10241000022A03D1E14C7034236802E0DF4C7434AB
:10242000236801F01F02012494401C4201D00120C6
:1024300000E0002010BD38B50020009000240025E9
:1024400000BF3120FFF7D9FF05460098401C0090DF
:102450000098B0F5A06F01D0002DF2D03120FFF729
:10246000CCFF08B1012400E00024204638BD01461D
:102470000020CA4A106820F0F80040EAC10010604D
:102480007047C949086070470021C44A7032117012
:102490001170012802D004280AD104E00121BF4AAA
:1024A0007032117005E00521BC4A7032117000E0F5
:1024B00000BF00BF7047BD490860704770B5049CFD
:1024C00041EA82150126C6EB530645EA0645054357
:1024D00045EA0465B14E361D356070BDB2490866E7
:1024E0007047820142EA0172AC4B84331A60704734
:1024F000AD4988667047AC49C86470470246002001
:10250000A64B0833186820F0EC6042EA0103184338
:10251000A24B083318607047024600209F4B0833D7
:10252000186820F0784042EA010318439B4B0833B7
:102530001860704701460020984A0832106820F061
:10254000030008431060704794480830006800F0AA
:102550000C00704701460020904A0832106820F0B5
:10256000F000084310607047014600208B4A083293
:10257000106820F4E05008431060704701460020C6
:10258000864A0832106820F4604040EAC1001060BA
:102590007047F0B500210022002402250026022306
:1025A0007E4F08373F6807F00C0121B1042905D0A0
:1025B000082937D105E07E4F076036E07D4F076080
:1025C00033E0764F3F1D3F68C7F38056734F3F1D82
:1025D0003F6807F03F036EB1764FB7FBF3F7DFF8C4
:1025E000BCC10CF1040CDCF800C0CCF3881C07FB68
:1025F0000CF40CE06E4FB7FBF3F7DFF8A0C10CF161
:10260000040CDCF800C0CCF3881C07FB0CF4634F0F
:102610003F1D3F68C7F301477F1C7D00B4FBF5F702
:10262000076002E0624F076000BF00BF5B4F0837E2
:102630003F6807F0F00109095F4F7A5C0768D740EF
:102640004760564F08373F6807F4E051890A5A4FF0
:102650007A5C4768D7408760504F08373F6807F477
:102660006041490B544F7A5C4768D740C760F0BD62
:10267000002100F44072B2F5407F0AD1474A083287
:10268000116821F4F8114D4A02401143434A0832BF
:102690001160424A70321268C0F30B031A433F4B79
:1026A00070331A60704741494439086070473F49A8
:1026B00040390860704742490860704739B1374A6D
:1026C000303212680243354B30331A6006E0334A29
:1026D000303212688243314B30331A60704739B15F
:1026E0002E4A3432126802432C4B34331A6006E00F
:1026F0002A4A343212688243284B34331A607047B6
:1027000039B1264A383212680243244B38331A60F2
:1027100006E0224A383212688243204B38331A606E
:10272000704739B11D4A4032126802431B4B403397
:102730001A6006E0194A403212688243174B403350
:102740001A60704739B1154A443212680243134B7C
:1027500044331A6006E0114A4432126882430F4B38
:1027600044331A60704739B10C4A10321268024380
:102770000A4B10331A6006E0084A1032126882438E
:10278000064B10331A607047E1B1044A14321268E4
:102790000243024B14331A6019E000000038024073
:1027A000FFFFF6FE1030002400004742800E474233
:1027B0000024F40000127A00C2000020FFFCFF0F8A
:1027C0005C0147425B4A126882435A4B1A60704769
:1027D00039B1584A121D12680243564B1B1D1A602C
:1027E00006E0544A121D12688243524B1B1D1A60A8
:1027F000704739B14F4A0C32126802434D4B0C33CB
:102800001A6006E04B4A0C3212688243494B0C3383
:102810001A60704739B1474A103212680243454B7B
:1028200010331A6006E0434A103212688243414B6B
:1028300010331A60704739B13E4A3C321268024385
:102840003C4B3C331A6006E03A4A3C321268824301
:10285000384B3C331A60704739B1364A40321268FF
:102860000243344B40331A6006E0324A4032126869
:102870008243304B40331A60704739B12D4A44329D
:10288000126802432B4B44331A6006E0294A443253
:1028900012688243274B44331A60704739B1254A86
:1028A0004C3212680243234B4C331A6006E0214A33
:1028B0004C32126882431F4B4C331A60704739B157
:1028C0001C4A5032126802431A4B50331A6006E019
:1028D000184A503212688243164B50331A607047C0
:1028E00039B1144AD21F12780243124BDB1F1A70FF
:1028F00006E0104AD21F127882430E4BDB1F1A707B
:1029000070470C486030006840F0807009496031C1
:102910000860704701460020064A083A12680A42D9
:1029200001D0012000E0002070470249891F087093
:10293000704700001438024010B50446F64884423F
:1029400008D101218014FFF765FF0021A014FFF7D3
:1029500061FF16E0F148844208D101210014FFF71D
:1029600048FF00212014FFF744FF0AE0EC488442AE
:1029700007D10121C013FFF73CFF0021E013FFF74F
:1029800038FF10BD10B50022028802F441520B88B6
:102990004C8823438C882343CC8823430C892343CE
:1029A0004C8923438C892343CC8923431A430280D7
:1029B000838B4FF2FF74234083830B8A038210BD05
:1029C0002DE9F04F002502230024012700220026D4
:1029D000944690469146B0F81CA04FF2400B0AEA8C
:1029E0000B0AA0F81CA04FF0020AA0F820A0858BCB
:1029F000D1F808A0BAF1020F01D100BF6AE0B1F826
:102A000004A0BAF1000F01D1012700E00227DFF88E
:102A100014A3DAF800A01AF4000F09D0DFF804A319
:102A2000DAF800A02AF4000ADFF8F8B2CBF800A028
:102A3000DFF8F0A20AF17C0ADAF800A0CAF38818DD
:102A4000DFF8E0A20AF17C0ADAF800A0CAF3027902
:102A5000DFF8D0A2AAF1040ADAF800A00AF03F0CCD
:102A6000DFF8C4A2BAFBFCFA0AFB08FABAFBF9F6D3
:102A7000B1F806A0BAF5007F0ED14FEA162A0AEB8C
:102A80008A0A4FEA4A0AD1F808B0BAFBFBFA0AF1FF
:102A9000050A1FFA8AF20FE04FEA471AB6FBFAFA64
:102AA0000AEB8A0A4FEA4A0AD1F808B0BAFBFBFAE5
:102AB0000AF1050A1FFA8AF24FF00A0AB2FBFAF28B
:102AC00002F00104A2EB040ACAF34F034FF6FF7AA7
:102AD0000AEA0424022B01DBFF2B01DD0223002480
:102AE000B1F806A04AEA040A4AEA030AA0F820A0BC
:102AF000B1F804A0B1F80CB04AEA0B0AB1F802B080
:102B00004AEA0B0AB1F800B04AEA0B0A4AF4006A32
:102B10004AEA05058583BDE8F08F002101804180E8
:102B20008180C180018141818181C1810721018230
:102B300070470021018041808180C1800221816035
:102B400000218181704721B1028842F04002028059
:102B500004E002884FF6BF731A400280704721B12B
:102B6000828B42F48062828304E0828B4FF6FF33D3
:102B70001A408283704702884FF2FF731A40028026
:102B800002880A4302807047B1F5804F04D1028861
:102B900042F48042028004E002884BF6FF731A4040
:102BA00002807047A1F57E42FF3A04D0028842F4C9
:102BB0008072028004E002884FF6FF631A400280B0
:102BC000704721B1828842F00402828004E082884A
:102BD0004FF6FB731A408280704721B1828842F021
:102BE0001002828004E082884FF6EF731A408280E0
:102BF000704730B500220023848B4FF240052C40F3
:102C0000848302240484828B0C88B4F5007F01D075
:102C10000C8814B94FF4807308E00C88B4F5407F39
:102C200003D00C88B4F5807F00D100238C888D8977
:102C30002C434D882C431C4344F40064224382837C
:102C400030BD0146888970478181704721B1028873
:102C500042F40052028004E002884DF6FF731A40ED
:102C600002807047018841F480510180704702461C
:102C70000020012901D0108B00E0908A70470146A6
:102C8000088A70471AB183880B43838002E08388E7
:102C90008B438380704730B5002400230C1101253D
:102CA000A540ABB21AB185881D43858002E08588B6
:102CB0009D43858030BD0246002013890B4201D020
:102CC000012000E000207047CA4302817047F0B540
:102CD0000246002000240023002501F00F070126F2
:102CE000BE40B4B20B1101269E40B3B2968806EAEC
:102CF00003051689264202D00DB1012000E0002014
:102D0000F0BD10B5002201F00F040123A3409AB2D8
:102D1000D343038110BD0000003001400038004063
:102D2000003C00400838024000127A0010B5012132
:102D30008803FFF76FFD00214FF48040FFF76AFD25
:102D400010BD1A490860704730B500228B071C0F70
:102D50000F2303FA04F2154B08338C1053F8243078
:102D60009343124C08348D1044F8253023468C10C0
:102D700053F824308C07240F00FA04F423430B4C3F
:102D800008348D1044F8253030BD0949086070477B
:102D9000084908607047002004492031096811F48F
:102DA000807F01D0012000E0002070470038014002
:102DB000DC002742000427422DE9FE4F804681EACD
:102DC0000300C00F0C46009021F0004123F00045A5
:102DD000B8EB0200A94105D24046214690461C4668
:102DE0000B46024623F00040104304D140462146E2
:102DF00003B0BDE8F08F270DC7F30A00C3F30A51F3
:102E00000290401A0190402866DAC3F3130040F4A0
:102E1000801B0098924620B10023D2EB030A63EB9B
:102E20000B0B01985946C0F14002504600F007FADA
:102E300006460D4650465946019A00F01FFA10EB1F
:102E400008006141002487EA115284EAE7731A43BB
:102E50003BD0009A3AB3019A012A4FEA075210DC9C
:102E6000001B61EB02014FF0004202EA0752CDE97C
:102E70000042001C41F5801132462B4600F053FA07
:102E8000B6E7001B61EB0201001C41F5801300183E
:102E90005B412018A2F5001747EB030140EAD5700B
:102EA000B6196D4111E06D084FEA360645EAC07566
:102EB0004FEA0752001B61EB0201001C41F5801133
:102EC00049084FEA30000019514132462B4603B001
:102ED000BDE8F04F00F01ABA00980122400000232C
:102EE000D0EB020263EBE073009821464FEAE074F6
:102EF000B8EB000061EB0401E9E783F000435BE716
:102F000081F0004158E72DE9FE4F81EA030404F007
:102F1000004421F0004100944FF0000B23F00043E7
:102F200050EA010402D052EA030404D10020014611
:102F300003B0BDE8F08FC3F30A54C1F30A552C4423
:102F4000A4F2F3340194A0FB0254C1F3130141F441
:102F50008011C3F3130343F4801301FB024400FB0D
:102F6000034E840A970A44EA815447EA8357A4FB34
:102F7000076802958D0A05FB07854FEA932C04FB31
:102F80000C542705029D4FEA065847EA1637B5EB61
:102F900008056EEB070C870E920E47EA811742EA8E
:102FA0008312A7FB0201B6EB0B0164EB00042B0DAF
:102FB00043EA0C335E1844EB1C50DA465146E7FBFB
:102FC0000201C5F313044FEA0B3343EA14534FEAEB
:102FD0000432019C43EA0603A4F10C040294009C11
:102FE000CDE900B400F09FF9A2E72DE9F04D81EAA8
:102FF000030404F0004B21F0004514464FF0000A92
:1030000023F0004150EA050220D054EA01021DD00D
:10301000C5F30A570246C5F31303C1F31300C1F306
:103020000A5640F4801543F48013A7EB0608101BE2
:10303000D64608F2FD3873EB050002D308F101080B
:1030400001E092185B41B8F1000F03DA002001465D
:10305000BDE8F08D00204FF48011064684460EE056
:10306000171B73EB050705D3121B63EB0503064320
:103070004CEA010C49084FEA300092185B4150EAD3
:103080000107EDD152EA030012D082EA040083EA7C
:103090000501084303D100224FF0004308E0101B54
:1030A000AB4102D20122002302E06FF00102531073
:1030B0001AEB06004CEB085110EB0A0041EB0B0138
:1030C000BDE8F04D00F022B90EB5C10F80EAE07006
:1030D0000844CA07002140F233438DE80E000A4637
:1030E0000B4600F020F903B000BD70B5C1F30A52E1
:1030F00001F000450024C1F3130140F2FF3341F415
:1031000080119A4201DA002070BD40F233439A42A6
:10311000A2F2334203DC524200F0A0F800E09040FB
:103120002C43F1D0404270BD00F0004230F000402E
:103130000AD0C10D01F56071C0F3160042EA0151D9
:10314000C208400711437047002001467047000045
:1031500030B5002904DB4FF00044404264EB01012C
:10316000002B04DB4FF00044524264EB030399420E
:1031700008BF904230BD000001F0004330B421F0A0
:10318000004150EA010206D00A0DA2F56072C1F3B7
:103190001301002A02DC30BC00207047440F44EACF
:1031A000C104C100E01830BC00EBC25000F078B898
:1031B00030B50B46014600202022012409E021FA07
:1031C00002F59D4205D303FA02F5491B04FA02F504
:1031D0002844151EA2F10102F1DC30BD2DE9F05F9B
:1031E0000546002092469B46884606468146402476
:1031F0001BE0284641464746224600F02FF853463A
:103200005A46C01A914110D311461846224600F082
:1032100016F82D1A67EB01084F46224601200021BF
:1032200000F00DF817EB00094E41201EA4F1010437
:10323000DFDC484631462A464346BDE8F09F202A57
:1032400004DB203A00FA02F1002070479140C2F1FD
:10325000200320FA03F3194390407047202A04DB2F
:10326000203A21FA02F00021704721FA02F3D040FF
:10327000C2F120029140084319467047202A06DB1C
:10328000CB17203A41FA02F043EAE07306E041FA34
:1032900002F3D040C2F12002914008431946704722
:1032A0000029A8BF7047401C490008BF20F001005A
:1032B000704710B4B0FA80FC00FA0CF050EA010438
:1032C00004BF10BC704749B1CCF1200421FA04F4CA
:1032D00011FA0CF118BF012121430843A3EB0C01A3
:1032E000CB1D0106000A002BBEBF002010BC70479A
:1032F00000EBC35010440029A4BF10BC7047401C11
:10330000490008BF20F0010010BC704710B5002B29
:1033100008DA401C41F1000192185B411A4301D1C7
:1033200020F0010010BD2DE9F04D92469B4611B1F1
:10333000B1FA81F202E0B0FA80F220329046FFF753
:103340007EFF04460F4640EA0A0041EA0B0153465D
:103350005A46084303D120463946BDE8F08D114650
:1033600053EA010015D0C8F140025046FFF776FF3E
:1033700005460E46504659464246FFF760FF084351
:1033800001D0012000E00020054346EAE0762C430E
:1033900037430A984FEA4453A0EB08004FEAD4247D
:1033A0000A304FF0000244EA47544FEAD72502D5CD
:1033B00000200146D1E7010510196941DDE9084502
:1033C00000196941BDE8F04DA0E72DE9F04D00235B
:1033D0001A461B1A8A4103DB00200146BDE8F08D26
:1033E000C1F30A52C1F3130141F480154FF0000BF1
:1033F000D10702D100186D41521E0027044640F249
:10340000FF11384601EB620A3E4680460246002024
:103410004FF48011FFF722FFC2197141BB1846EB30
:103420000100B4EB030C75EB000C04D3E41A65EB5C
:10343000000517460E46241908F101006D4180462B
:103440003428E3DDF91946EB0600091BA84103D235
:103450004FF0FF32134601E0002213461BEB07003A
:1034600046EB0A51BDE8F04DFFF750BFC1F30A52D9
:10347000C1F3130140F2FF3341F480119A4202DAA2
:1034800000200146704740F233439A42A2F2334291
:1034900002DC5242FFF7E2BEFFF7D1BE064C074DF9
:1034A00006E0E06840F0010394E807009847103414
:1034B000AC42F6D3FCF76CFE8C510008BC510008FE
:1034C000000000000FB4084B10B504A902AA03982D
:1034D00000F030F9044602A9002000F0CEFC20469E
:1034E00010BC5DF814FB00007B3E000800B52DED1C
:1034F000048BB0EE408AF0EE608A83B051EC180B7A
:10350000FFF763FF41EC190B19EE100A19EE901A40
:103510008DED009B002818BF0120084320F00040DB
:10352000C0F17F6000F1E040C00F14D018EE101A17
:1035300018EE900A8DED008B002918BF0121084379
:1035400020F00040C0F17F6000F1E040C00F04BFF8
:10355000012000F017F8B0EE490A03B0F0EE690A56
:10356000BDEC048B00BD02E008C8121F08C1002A90
:10357000FAD170477047002001E001C1121F002AF4
:10358000FBD170470149086070470000F00000203F
:103590002DE9FF5FDDE90220010DDDF838B00243BF
:1035A00010D10F9801244CA2012808D000210098C6
:1035B0000F9BC0E90021C0E90243BDE8FF9F6FEA0D
:1035C0000B01F4E7A1F2FF3144F6105041430D1412
:1035D0000F9801280ED0A5EB0B00401C4FF0000403
:1035E0003E4EDFF8FC90B0F1000AA04605DACAF1C1
:1035F000000717E0CBF10000F0E7074612E0F807FC
:1036000007D02246334640464946FFF77CFC8046B9
:1036100089462246334610461946FFF774FC044695
:103620000E467F10002FEAD1DDE90201BAF1000F4A
:1036300042464B4602DAFFF766FC01E0FFF7D5FC95
:1036400004460E460022274BFFF782FD03D84FF0B9
:10365000FF30014607E00022234B20463146FFF7AA
:10366000ABFBFFF703FF102409E0002C0ADB0A2262
:103670000023FFF7B3FD019B30321A55641E50EA58
:103680000102F2D1641C019AC4F1110314440F9A8F
:10369000012A09D00122084301D15B450FDD4FF01B
:1036A000000205F101050DE0084303D1A3EB0B0572
:1036B0006D1E09E000204FF0110B0F9088E701DA32
:1036C00000226D1E002A83D000980F99C0E90231B4
:1036D000C0E9004571E70000300000000000244010
:1036E0000000F03F0000F0430000E03F10B5002A6A
:1036F00006DA22F00042D21D22F00703102203E076
:10370000D21C22F003030C2213B19C188C4201D965
:10371000012010BD024401448360C0E90021C91AA0
:10372000D018884202D810600246F9E700201060E5
:1037300010BD00002DE9FF4F95B09B468946064617
:10374000002512E2252878D10024761CF94A274664
:10375000012105943378203B01FA03F0104202D096
:103760000443761CF6E730782A2811D06FF02F0337
:103770003078A0F13002092A16D8059A44F00204E4
:1037800002EB820203EB42021044761C0590EFE745
:1037900059F8042B0592002A03DA504244F40054ED
:1037A000059044F00204761C30782E2816D116F8C5
:1037B000010F44F004042A280DD06FF02F02307856
:1037C000A0F13003092B09D807EB870302EB430371
:1037D000C718761CF3E759F8047B761C30786C2800
:1037E0000FD006DC4C2817D068280DD06A2814D1D9
:1037F00004E0742810D07A280FD10DE044F40014AE
:103800000AE044F4801401E044F4401472788242E7
:1038100002D1761C04F58014761C307866280BD013
:1038200013DC582877D009DC002875D04528F6D05D
:103830004628F4D047281AD19FE118E0632835D0F4
:10384000642879D0652812D197E1702873D008DCFC
:103850006728F1D069286FD06E280DD06F2806D167
:10386000B5E073282CD0752875D0782874D05A46C6
:10387000179990476D1C76E1C4F30250022809D0D5
:1038800003280DD0D9F8001004280DD00D6009F1DF
:10389000040968E1D9F80010EA17C1E90052F6E717
:1038A000D9F800100D80F2E70D70F0E719F8041B4D
:1038B0008DF8001000208DF80100EA46012003E099
:1038C00059F804AB4FF0FF3061074FF0000102D40C
:1038D0000DE008F101018846B9420FDA8045F8DBB6
:1038E0001AF808100029F4D108E008F1010188460F
:1038F0008142FADB1AF808100029F6D105985B46D8
:10390000A0EB080721463846179A00F09EFA284493
:1039100000EB080507E04DE02BE10DE01AF8010B84
:103920005A4617999047B8F10108F7D25B462146ED
:103930003846179A14E142E00A220092C4F3025278
:103940004FF0000A022A08D059F804CB032A4FEAA4
:10395000EC710AD00DE029E02AE009F1070121F01D
:103960000702F2E802C1914609E00FFA8CFC4FEA27
:10397000EC71042A03D14FFA8CFC4FEAEC71002958
:1039800007DA0A460021DCF1000C61EB02012D226E
:1039900002E0220504D52B228DF80420012203E049
:1039A000E20701D02022F7E7904653E00A2102E027
:1039B00010220DE010214FF0000A00910BE01022C0
:1039C0004FF0000A44F004040827009203E00822A4
:1039D0004FF0000A0092C4F30252022A05D059F8AF
:1039E00004CB0021032A08D009E009F1070121F0E6
:1039F0000702F2E802C1914605E01FFA8CFC042A96
:103A000001D10CF0FF0C4FF00008220722D57028DE
:103A100027D0009B83F0100353EA0A0309D15CEA24
:103A2000010206D030228DF804208DF80500022214
:103A30009046009B83F0080353EA0A030AD15CEA2C
:103A4000010201D1620705D530228DF804204FF024
:103A500001087F1E582809D037A003900EA80290B5
:103A600013E040228DF804200122E1E737A0F4E7BB
:103A700053466046009AFFF7B1FB84460398825C88
:103A80000298A0F10100029002705CEA0100EFD1FF
:103A9000029806A9A1EB000000F1200A600702D5F8
:103AA00024F4803400E00127574502DDA7EB0A002B
:103AB00000E0002000EB0A01009005984144A0EBD3
:103AC00001000590E00306D45B462146179A05984D
:103AD00000F0BBF90544002706E001A85A46C05D86
:103AE000179990476D1C7F1C4745F6DBE0030CD50A
:103AF0005B462146179A059800F0A7F9054404E0B3
:103B000030205A46179990476D1C0099481E009026
:103B10000029F5DC08E0029802995A460078491C11
:103B20000291179990476D1CBAF10001AAF1010AA0
:103B3000F1DC6BE10928010030313233343536379E
:103B400038396162636465660000000030313233E9
:103B50003435363738394142434445460000000089
:103B600000F060F9054406F10106307800287FF482
:103B7000E9AD19B02846BDE8F08F620700D40627EA
:103B800009F1070222F0070CFCE80223E14603F0EA
:103B900000485FEA080C02D00FF27C2C0DE05FEACF
:103BA000045C02D50FF2742C07E05FEAC47C02D0FB
:103BB0000FF26C2C01E0AFF2700C4FF0FF3823F0E5
:103BC0000043CDF850C065280CD006DC452809D04C
:103BD00046281DD047283ED13EE0662818D06728E9
:103BE00039D139E00021112F01DB112000E0781CD0
:103BF000CDE9000106A90EA8FFF7CAFCDDE90F0117
:103C00000E9A03910021009207F1010A04914EE0FF
:103C10004FF000400097CDE9011006A90EA8FFF76C
:103C2000B7FCDDE90F0203920E9B11990022DDF82B
:103C30000CA00093049219B907F1010100EB010AED
:103C4000B7EB0A0004D4C0F1FF3007F1010A049079
:103C5000AAEB0700019046E0012F00DA01270021BE
:103C6000112F01DD112000E03846CDE9000106A941
:103C70000EA8FFF78DFCDDE90F010E9A03910021DC
:103C800004910092BA4621070CD40399514500DAF9
:103C90008A46BAF1010F05DD009AAAF10101515CD3
:103CA000302908D0B84202DA10F1040F06DA0121F7
:103CB000CDE9011017E0AAF10101E9E7002805DCD0
:103CC000049901440491AAEB000102E0411C514512
:103CD00000DD8A460499A0EB010000F1010001908B
:103CE0004FF000400290200704D40198504501DBBA
:103CF000CDF8048000208DF84F0002980DF14F0799
:103D0000B0F1004F25D02B200E9002984FF0020802
:103D100000280CDA404202902D200E9007E00A2184
:103D20000298FFF745FA3031029007F8011DB8F10B
:103D30000001A8F10108F2DC02980028EFD1791EF9
:103D40000E980870307800F0200040F0450007F829
:103D5000020D12A8A0EB070000F1070814980078E4
:103D600000B1012000EB0A01019801EBE071059818
:103D70004144A0EB0100A0F101000590E00306D44E
:103D80005B462146179A059800F05FF805441498A1
:103D9000007820B15A461799904705F10105E003D4
:103DA00023D55B462146179A059800F04EF8054446
:103DB0001BE00498002807DBDDE90301884203DDEE
:103DC0000098405C179901E0179930205A469047B7
:103DD00004986D1C401C04900198401E019004D171
:103DE0002E205A46179990476D1CBAF10001AAF18E
:103DF000010ADEDC05E017F8010B5A4617999047D7
:103E00006D1CB8F10001A8F10108F4DC5B46214605
:103E1000179A0598A4E600002D0000002B00000072
:103E2000200000002DE9F041044600251E461746FB
:103E3000880405D406E039462020B04705F1010585
:103E4000641EF8D52846BDE8F0812DE9F04104460E
:103E500000251E469046C80301D5302700E02027E4
:103E6000880405D506E041463846B04705F101050E
:103E7000641EF8D52846BDE8F0810A68531C0B6023
:103E80001070704708480068C0010BD507480068EB
:103E9000C00707D0054880380068002802DA0449C6
:103EA0000120087070470000FCED00E0800E00E08B
:103EB000E60000204FF06042D36F002BFCD0C36AB5
:103EC000D367D36F002BFCD0C07840EA0120A2F862
:103ED0007C0070474FF06041CA6F002AFCD081F827
:103EE0007C00704770B504000D4603D012B92078ED
:103EF000012801D0802070BD204600F0E7FA28B1EB
:103F00002946204600F040F8002070BD812070BD99
:103F10000246084810B500EB810050F8040C002858
:103F200006D0114600F026FCBDE8104000F012BC9F
:103F300010BD0000141B001010B504468089002835
:103F400021D0608904EB8000006908606078022855
:103F500005D10021204600F00DFC00F0FBFB04F130
:103F60000C0000BFD0E85F1F491EC0E8521F002AA6
:103F7000F8D16089401C80B26081E189884201D11A
:103F800000206081042010BD10B500F0F3FBBDE8F7
:103F9000104000F0DFBB0000EFF3058109B1822083
:103FA0007047DFF808C000DF70470000814C000850
:103FB000EFF305820AB182207047EFF31482144BAD
:103FC00012F0030206D0012A1BD0022A11D0032AC4
:103FD00019D113E0EFF3088282F309881A78D20727
:103FE0000AD0022282F31488BFF34F8FBFF36F8F82
:103FF00009E01A78D20706D10322F3E71A78D2072C
:1040000001D0FF207047DFF80CC000DF70470000D0
:10401000804F0008954C00082DE90E40EFF3058213
:10402000B2B102004FF0800000D021B10090DDE974
:10403000011203B000BD11780129F7D101A9104682
:10404000FFF77AFF042801D00020EFE71020EDE70A
:10405000DFF804C000DFECE78D4D00082DE970406B
:10406000EFF3058272B10C4600F044FD4FF00045BD
:1040700030B1210C04D1058BC178A0B2FFF748FF05
:10408000284670BDDFF804C000DF70BDC74D0008D2
:10409000EFF305830BB182207047DFF808C000DF23
:1040A00070470000ED4D0008EFF305820AB10020D3
:1040B0007047DFF808C000DF70470000414E00087D
:1040C000DFF80CC000DFDFF80CC000DFFEE7000007
:1040D000B14E0008CD4E0008DFF804C000DF704785
:1040E000054F0008094C4FF0FF3529462068FFF7BF
:1040F00093FF02460846102AF7D1FFF7EDFF00288C
:10410000F3D0024608469047EFE700002000002069
:104110004FEA000151E8000F28B1036841E800327E
:10412000002AF7D17047BFF32F8F704710B568B1E1
:1041300061B10B3121F00302016844680B1A1B1BAB
:10414000934205D2084609680029F5D1002010BD28
:104150003CB121180368C1E90032016001F1080097
:1041600010BD4260083010BD70B50C46002812D05A
:104170004FF6FF71084D884204D22A680146104666
:1041800000F024FB28684470044800F025F9BDE8DD
:10419000704000F0DDBB70BDD80000209001002011
:1041A0000F4810B50D4942680E480B6800889342CD
:1041B00004D00A60CB88421E1A448A808A888242D0
:1041C0000AD100200860064800F006F90146BDE863
:1041D0001040034800F028BB10BD0000E80000209C
:1041E00090010020E400002070B5194DE868002817
:1041F0002CD0A88A401EA882002621E0A06838B1F1
:1042000061684160606810B1A16881606660A66005
:104210000F482146183800F007FBA08AA882607872
:10422000042804D10B49E08A09880844A0820120AF
:104230006070E068E860E06808B10561E6602661EA
:10424000A88A002802D1EC68002CD7D170BD0000EC
:10425000A8010020E400002070B504000FD00D4D2F
:10426000A17801262868827891420CD900F0F8FAEA
:10427000286846702046BDE8704000F069BB0648DB
:1042800000F0AAF8F7E766702146BDE870400248E2
:1042900000F0CABAD8000020900100200321FFF7E7
:1042A00063BF000010B50446008B0843208362788A
:1042B000618B062A18D0052A19D1084217D001EAC5
:1042C0000002628388432083204600F0E9FA01203F
:1042D0006070628B0821204600F0DAFA2146BDE8C2
:1042E0001040034800F0A0BA31EA0002EAD010BD45
:1042F000900100200246154810B500EB810050F8EF
:10430000044C002C21D0208B104320836278618BD9
:10431000062A17D0052A18D1084216D001EA000251
:10432000628388432083204600F0BAFA012060703F
:10433000628B0821204600F0ABFA2046BDE8104011
:10434000FFF78ABF31EA0002EBD010BD141B00104A
:1043500003460E4810B504688C46208B42B133EA00
:10436000000101D0062009E098432083022010BDFF
:1043700010EA030201D06283F6E70520C1B263832D
:104380006046FFF7F1FE012010BD0000D8000020BC
:10439000814202D342688A4201D80120704750E826
:1043A000002F0A6040E80012002AF8D10020704770
:1043B00068B161B10839002202E00246006830B1FC
:1043C0008842FAD12AB100681060002070470120AD
:1043D000704700214160F8E70146406842684A6042
:1043E0000B780022022B05D0012B03D0032B01D028
:1043F0004260704743680BB19960426082607047C9
:10440000810700D00020704770B504460020154693
:10441000207001226270A1706060A060E060206185
:10442000A082E0822083608384F82000608C18B929
:104430000448FFF76DFEA06229462046BDE87040A3
:1044400000F01CB86001001008B1082901D2012059
:1044500070470144091F002201600A604260104653
:104460007047000003480021016003490968C180CA
:1044700070470000E8000020784F000810B5428C1B
:10448000920803D10F4A1268C2F38D02836A03EBCC
:104490008202530700D5121F403A4FF08073C2E9E1
:1044A0000E1300234FEA030442F823405B1C0E2B3B
:1044B000FAD3C36913624262C162806A0249016031
:1044C00010BD0000744F0008A52E5AE2C1898089F2
:1044D000081A704701220270002242708270426006
:1044E00002814281103982818908C18170470000B0
:1044F0002DE9F0410446407800270E464FF00108B0
:10450000012855D004F10C0502282BD0032818D01F
:10451000A089E189884262D2208904EB800006618B
:10452000D5E85F0F401CC5E8510F0029F8D120895C
:10453000401C80B22081E189884200D12781BDE8FA
:10454000F0810846FFF7E4FD0600F8D02046FFF7AB
:1045500043FF0546606800B967703146284600F0A1
:1045600091F931E02046FFF737FF0646606800B951
:1045700067700021304600F085F92189F06904EB6D
:1045800081010861D5E85F0F401CC5E8510F002983
:10459000F8D12089401C80B22081E189884200D175
:1045A000278186F80180304600F07AF9314611E023
:1045B0002046FFF711FF0546606800B96770324674
:1045C0001021284600F064F985F80180284600F0A3
:1045D00067F92946BDE8F041034800F025B9BDE878
:1045E000F0410320FBF7B2BF9001002070B50446F4
:1045F000808915460026C8B3608904EB80000069F5
:1046000008606089401C80B26081E189884200D1E5
:104610006681607802280AD014F10C04D4E85F0F98
:10462000401EC4E8510F0029F8D1002070BD20467B
:10463000FFF7D2FE0546606800B966700021284683
:1046400000F020F92189E86904EB810108612089E3
:10465000401C80B22081E189884200D12681284611
:1046600000F01EF92846FFF7F7FDDEE7FFE73DB152
:104670000A48626801682AB1204600F0D5F807E0D0
:10468000012070BD61600068C0E9016401206070B4
:1046900008212846FFF768FDF2E70000D800002057
:1046A000411C13D00B4A4FF6FE7190420CD800EB20
:1046B0004002C2EBC0120848036803EBC202521E5C
:1046C000B2FBF3F0884200D9084670474FF6FF70FE
:1046D0007047000000093D00844F000870B51A487B
:1046E00001210068417000F0BBF8184D6C7816E0AD
:1046F00005EBC40148680278E2B1012A1FD000F03E
:10470000FBF8E878641C844200D100240F48801C28
:10471000D0E84F1F491EC0E8421F002AF8D1A878F0
:104720000028E5D16C700A48FFF756FEBDE87040DE
:1047300000F00EB9896889B2FFF7B4FDE1E7896836
:10474000FFF7D6FEDDE70000D8000020901A001029
:10475000900100200548017811B101214170704796
:1047600003494FF08050086070470000E0000020CF
:1047700004ED00E0F0B4144B9C1CDD784FEA030C10
:10478000D4E84F2FAA4202D1BFF32F8F0EE0521C64
:10479000C4E8462F002EF3D1DCE84F2F541CAC4266
:1047A00000D10024CCE8464F002EF5D1DC789442AD
:1047B00005D903EBC202C2E90101F0BC7047F0BCAD
:1047C0000220FBF7C3BE0000901A0010154A10B576
:1047D000D368FBB113469B8A09E000BFD2F80CC036
:1047E000BCF1000F16D0BCF81440624623448B4243
:1047F000F4D3D468C460D0600261D0F80CC0BCF1BE
:10480000000F01D0CCF81000591A8182908A401A0A
:10481000908210BD0024C460D060C91A02619182E8
:10482000848210BDA801002010B502780023022A5E
:1048300003D0012A01D0032A00D1012391F802C03C
:1048400000E01046426812B194786445F9D24A609B
:1048500041601BB102B19160886010BD0020FBE790
:1048600003494A6842600022826048607047000045
:104870009001002090F82010406A09B16030704724
:104880002030704710B50C46FFF7F4FF046010BDF0
:1048900070B50C461546FFF7EDFFC0E9004570BD49
:1048A00010B5016900290ED0C268CA60C368002231
:1048B0003BB18B8A848A23448B82C3681961C260AE
:1048C00000E08A82026110BD816839B142684A60A5
:1048D0004168002901D0806888607047054906E07A
:1048E0004A68824202D140684860704711460029F8
:1048F000F6D170479001002010B5416881B1FFF7F3
:104900006BFD0446FFF7CCFF012060700146204696
:10491000FFF7B8FF2146BDE810400348FFF784BF0A
:104920004188491C418010BD900100200648006864
:10493000D0E90910814203D300680449884202D0BB
:104940000120FBF703BE7047D8000020A52E5AE2D5
:104950000749022248604270064A1278002A05D0B0
:1049600006C98A4202D0C078FFF7B4BA7047000087
:10497000D8000020E60000202DE9F04104460D4655
:104980009046FFF77FFA002006463849384B02E090
:1049900041F82060401C1A889042F9D335483022F3
:1049A00001883548FEF7A2FE3448006880B240F026
:1049B0000042334801683348FEF798FE3248082227
:1049C000018832480068FEF791FE314FFF20314ADE
:1049D000F8707E8400213846FFF716FD2E4804212A
:1049E000017046602D480170C66006618682786A53
:1049F0002030FBF7D7FB2A482B490760022078704C
:104A00002848067046700978C170284801684FF040
:104A1000E020416186610721016125480168254A3E
:104A2000114301600068224900F07F40C0431439FF
:104A3000B0FA80F00968C0F10800C1F30221814298
:104A400000DB481C1A49091F0B686FF08072824016
:104A500063F317020A60FFF705FD42462946204628
:104A6000BDE8F041002300F06DB80000141B0010F9
:104A7000704F00088C4F000800000010744F0008B1
:104A8000904F000860010010B44F0008180000208B
:104A9000600100204905000890010020A8010020C5
:104AA000D8000020901A0010984F00087C4F000892
:104AB00020ED00E00000FFFF0B4810B50068012169
:104AC0004170FFF7CDFEFFF76BFB08490888401CDB
:104AD0000880FFF789FB00F021FA0548FFF77CFC0E
:104AE000BDE81040FFF734BFD8000020E4000020EC
:104AF00090010020002805D0810702D1017800290B
:104B000000D000207047000030B50D4C0023226813
:104B100008E000BFB2F808C08C4505D813461268FB
:104B2000A1EB0C01002AF5D189B20260018112B11A
:104B30001589691A11810BB1186030BD206030BD34
:104B4000D40000202DE9F041804616461F460D4650
:104B500011F0FF0F00D14D1C1648FFF7D9FA0400E1
:104B600026D0280AA6626084E9B242462046E76160
:104B7000FFF74AFC01251048104905E000EB8502CB
:104B800052F8042C22B16D1C0A889542F6D90025F2
:104B900000EB850040F8044C0948E570007818B136
:104BA00001212046FFF786F92046FFF755FB2846EE
:104BB000BDE8F08100000010141B0010704F0008C9
:104BC000E60000202DE9F041244C234F244B2268BD
:104BD0000026D17808B1814218D103EB81005670CC
:104BE00040F8046C1F48916AFFF7D2FB2068866288
:104BF000397811B10021FFF75DF91B482168FFF7F3
:104C0000C7FB00202660FFF727FB1FE01749098834
:104C100088421ED803EB800555F8044CCCB12046E1
:104C2000FFF752FE2046FFF73BFE45F8046C0D48A7
:104C3000A16AFFF7ADFBA662387818B100212046C3
:104C4000FFF738F921460848FFF7A2FB0020BDE82E
:104C5000F081FF20FBE70000E6000020D8000020E4
:104C6000141B00106001001000000010704F0008BD
:104C700002480068002800D0C0787047D8000020A3
:104C800010B5002805D0FFF70BFD80B2FFF706FB3B
:104C9000402010BD70B504000D4608D0206830B12A
:104CA000B4F9040010F1030F01DB032801DD8620B5
:104CB00070BD244E306840B1204600F0C1F8A0B16C
:104CC00000F0F6F800F002F937E01F4840070CD179
:104CD0001E4801681C48FFF7B7FB30B9E16831B1E5
:104CE0001948FFF723FA020002D1852070BD002287
:104CF000B4F90400E168001D40EA01212068FFF7D3
:104D00003BFE7068D8B1C078114901EB800050F8C3
:104D1000040C3060416A0D62406A0E494163002113
:104D20000D4800F021F80D49086000210C4800F002
:104D300087F80C49086000203060002070BDFF201B
:104D400070BD0000D800002030140010944F0008FF
:104D5000141B0010C1400008AC4F000820000020C8
:104D60009C4F00081C00002010B5040005D02168ED
:104D700019B1606808B102780AB1002010BD89003D
:104D8000103189B2FFF7A6FB606810BD3EB5040084
:104D90000D464FF0800012D0217801290FD128460E
:104DA000FFF77EFC82B201A92046FFF71FFC012815
:104DB00001D0102003E00DB1402000E00020DDE92B
:104DC000011203B030BD70B50C46FFF793FE4FF0F3
:104DD000004108B1220C01D0084670BD058BC17896
:104DE000A0B2FFF787FA284670BD000070B50446F0
:104DF0000D46000C01D086201EE008462CB1FFF7BE
:104E00004FFC81B20122A0B205E0FFF749FC81B25C
:104E100000224FF6FF70FFF79BFA022802D04DB137
:104E2000402008E008200CB1214605E0034909684C
:104E3000498B01E000200021324670BDD8000020DF
:104E400070B504000E462BD0206848B3B4F90400B6
:104E500010F1030F24DB032822DCE16829B111489B
:104E6000FFF764F9050015D000E00025B4F904004F
:104E7000E168001D40EA012133462A462068FFF719
:104E800061FE40B1084901EB8000084950F8040C6C
:104E9000426A516370BD1DB129460248FFF788FA86
:104EA000002070BD30140010141B0010C140000819
:104EB00010B5FFF7DDFE002804D0034901EB8000A8
:104EC00050F8040C10BD0000141B001070B5FFF763
:104ED00011FE040003D0608C18B1A56A02E08020A6
:104EE00070BD0025E078FFF76DFEFF2806D01DB1EC
:104EF0000348A16AFFF75CFA002070BD812070BDF5
:104F00003014001010B5FFF77BFA20B101690A6870
:104F1000C168104610BD0020014610BD2DE9F041CA
:104F2000114E3468002C18D02089104F401E20816B
:104F30004FF001080EE0254624683460002229461F
:104F40003868FEF7CFFF6879012808D085F804801B
:104F5000002C02D020890028EDD0BDE8F0816989BD
:104F60002846FFF7D1FDF3E7D40000202000002001
:104F70000700000020030201050001003F9002002D
:104F800001000000E8030000000000005C010000D8
:104F9000D01200006006000010000000E54000088C
:104FA00002000000010000002003000004000000D7
:104FB000301B001000000000510500080000000038
:104FC000010000002003000083050008020000002B
:104FD00001000000000000001307000800000000AE
:104FE0000100000000000000370B00080000000076
:104FF0000100000000000000000000000000803FF1
:105000000000803F000000400000404000004040A1
:1050100000008040000080400000A0400000A04050
:105020000000C0400000E0400000E04000000041FF
:10503000000000410000104100001041000020412C
:10504000000020410000304100004041000040418C
:1050500000005041000050410000604100006041EC
:10506000000070410000704100008041000080415C
:1050700000008841000088410000904100009841F4
:10508000000098410000A0410000A0410000A8419C
:105090000000A8410000B0410000B0410000B8414C
:1050A0000000B8410000C0410000C0410000C04104
:1050B0000000C8410000C8410000D0410000D041BC
:1050C0000000D8410000D8410000E0410000E0416C
:1050D0000000E8410000E8410000E8410000F04124
:1050E0000000F0410000F8410000F84100000042DB
:1050F00000000042000000420000044200000442A0
:1051000000000842000008420000084200000C4273
:1051100000000C420000104200001042000010424B
:105120000000144200001442000014420000184223
:10513000000018420000184200001C4200001C42FF
:1051400000002042000020420000204200002442D3
:1051500000002442000024420000284200002842AF
:10516000000028420000284200002C4200002C428F
:1051700000002C420000304200003042000030426B
:10518000000034420000344200003442BC510008A8
:1051900000000020F400000066350008BC51000843
:1051A00000000010501B000076350008B0520008C7
:1051B000F4000020CC04000076350008007A030AD1
:1051C00000000000000000000102030406070809B7
:1051D00000000000000000000000000000000000CF
:1051E00000000000000000000000000000000000BF
:1051F00000000000010000000100000000000000AD
:10520000000000000000000000000000000000009E
:1052100000000000367598A743ADEF3FEC05C33A98
:10522000F6E973BFE61693CEF32898BF69CA5468AF
:10523000F5608B3F4CBB87BDD71BF03FA066810458
:10524000CEF589BFE81B9C517326533F71E5EF17DC
:105250002160853F704549BF2052EF3F6889FB615F
:1052600076AF42C0F0D6BFA3CB9F3A40700C0992F4
:1052700066B53BC0001000000010000000000000F8
:1052800000000102030401020304060708090000EC
:10529000000000000000000000000000000000000E
:1052A00000000000000000000000000000000000FE
:040000050800018965
:00000001FF
